:020000040000FA
:020000002528B1
:020008005B2873
:04000A00003400348A
:06004A00392063000000F4
:100050004D218B012318AE28A318BA282319DA28BA
:10006000A319F328231A2C29A31A3329231B3A296D
:1000700025285021FF308500713086000030870030
:100080000F3088004D218B018801870186140615E9
:1000900086018501A001A201A401A3010F30A100E6
:1000A000502106309F0001174D2186018B11060853
:1000B00098308B0008004D218B130B1863288B1888
:1000C00089288B1309004D218B110B100608A20003
:1000D000061A7D28861A8128061B85288B158B1702
:1000E00009005021073081004D2181010B118B1631
:1000F0000B1D78288B120B11080023168B158B17FC
:100100000900A3168B158B17090023178B158B1766
:1001100009004D210B120608A2008B10081899281F
:1001200088189D280819A1288819A5280B168B1353
:10013000090023140B168B170900A3140B168B1739
:10014000090023150B168B170900A3150B168B1727
:1001500009004D2107148714071108004D212310B1
:10016000A9201121C120C52025284D210714871061
:10017000071508004D21A310B5201121C120C5206D
:1001800025284D218710071108004D210710080070
:100190008715FD201E2102211E2107211E210C2171
:1001A0001E21A00A21082002031DC8288711A001D2
:1001B000FA2008004D212311A920C820C120C52004
:1001C000252887150C211E2107211E2102211E2111
:1001D000FD201E21A00A21082002031DE12887110D
:1001E000A001FA2008004D21A311A920E120C1207F
:1001F000C52025284D2187110800071687120717EB
:1002000087130800071687120713871708000712BD
:100210008716071387170800071287160717871313
:1002200008005021FF3092004D2191017B30920057
:1002300012152721A403031D112908005021C830DD
:1002400092004D21910192011215272108008C1C6A
:1002500027298C10121108004D212312861408162C
:100260004021081225284D21A31206158816402189
:10027000881225284D21231308174021081325280B
:100280005021FF3092004D2191017B3092001215D8
:100290002721A403031D402908000313831208002B
:0602A000031383160800A1
:00000001FF
